{
    "contractName": "DigitalWaveOracle",
    "abi": [
        {
            "inputs": [],
            "stateMutability": "nonpayable",
            "type": "constructor"
        },
        {
            "anonymous": false,
            "inputs": [
                {
                    "indexed": true,
                    "internalType": "bytes32",
                    "name": "id",
                    "type": "bytes32"
                }
            ],
            "name": "ChainlinkCancelled",
            "type": "event"
        },
        {
            "anonymous": false,
            "inputs": [
                {
                    "indexed": true,
                    "internalType": "bytes32",
                    "name": "id",
                    "type": "bytes32"
                }
            ],
            "name": "ChainlinkFulfilled",
            "type": "event"
        },
        {
            "anonymous": false,
            "inputs": [
                {
                    "indexed": true,
                    "internalType": "bytes32",
                    "name": "id",
                    "type": "bytes32"
                }
            ],
            "name": "ChainlinkRequested",
            "type": "event"
        },
        {
            "inputs": [],
            "name": "facts",
            "outputs": [],
            "stateMutability": "nonpayable",
            "type": "function"
        },
        {
            "inputs": [
                {
                    "internalType": "bytes32",
                    "name": "_requestId",
                    "type": "bytes32"
                },
                {
                    "internalType": "uint256",
                    "name": "_response",
                    "type": "uint256"
                }
            ],
            "name": "fulfill",
            "outputs": [],
            "stateMutability": "nonpayable",
            "type": "function"
        },
        {
            "inputs": [],
            "name": "response",
            "outputs": [
                {
                    "internalType": "uint256",
                    "name": "",
                    "type": "uint256"
                }
            ],
            "stateMutability": "view",
            "type": "function"
        }
    ],
    "bytecode": "6080604052600160045534801561001557600080fd5b5061001e610079565b600680546001600160a01b031916732f90a6d021db21e1b2a077c5a37b3c7e75d15b7e1790557f666366343134306436393664343462363837303132323332393438626464356460075567016345785d8a000060095561011e565b6100fa73c89bd4e1632d3a43cb03aaad5262cbe4038bc5716001600160a01b03166338cc48316040518163ffffffff1660e01b815260040160206040518083038186803b1580156100c957600080fd5b505afa1580156100dd573d6000803e3d6000fd5b505050506040513d60208110156100f357600080fd5b50516100fc565b565b600280546001600160a01b0319166001600160a01b0392909216919091179055565b6109bc8061012d6000396000f3fe608060405234801561001057600080fd5b50600436106100415760003560e01c80634357855e146100465780637a7f01a71461006b5780637e74f36014610085575b600080fd5b6100696004803603604081101561005c57600080fd5b508035906020013561008d565b005b61007361012e565b60408051918252519081900360200190f35b610069610134565b60008281526005602052604090205482906001600160a01b031633146100e45760405162461bcd60e51b815260040180806020018281038252602881526020018061095f6028913960400191505060405180910390fd5b60008181526005602052604080822080546001600160a01b03191690555182917f7cc135e0cebb02c3480ae5d74d377283180a2601f8f644edf7987b009316c63a91a25060085550565b60085481565b61013c6108ec565b60075461015190306321abc2af60e11b610229565b90506101bd60405180604001604052806008815260200167195b991c1bda5b9d60c21b8152506040518060400160405280601a81526020017f68747470733a2f2f636174666163742e6e696e6a612f666163740000000000008152508361024e9092919063ffffffff16565b61020a604051806040016040528060048152602001630e0c2e8d60e31b81525060405180604001604052806004815260200163199858dd60e21b8152508361024e9092919063ffffffff16565b600654600954610225916001600160a01b0316908390610271565b5050565b6102316108ec565b6102396108ec565b610245818686866103b1565b95945050505050565b608083015161025d90836103f7565b608083015161026c90826103f7565b505050565b6000806004549050806001016004819055506060634042994660e01b60008087600001513089604001518760018c608001516000015160405160240180896001600160a01b03168152602001888152602001878152602001866001600160a01b03168152602001856001600160e01b031916815260200184815260200183815260200180602001828103825283818151815260200191508051906020019080838360005b8381101561032d578181015183820152602001610315565b50505050905090810190601f16801561035a5780820380516001836020036101000a031916815260200191505b509950505050505050505050604051602081830303815290604052906001600160e01b0319166020820180516001600160e01b03838183161783525050505090506103a78683868461040e565b9695505050505050565b6103b96108ec565b6103c985608001516101006105bc565b50508284526001600160a01b03821660208501526001600160e01b031981166040850152835b949350505050565b61040482600383516105fc565b61026c8282610717565b604080513060601b60208083019190915260348083018790528351808403909101815260549092018084528251928201929092206000818152600590925292812080546001600160a01b0319166001600160a01b03891617905582917fb5e6e01e79f91267dc17b4e6314d5d4d03593d2ceee0fbb452b750bd70ea5af99190a2600254604051630200057560e51b81526001600160a01b0387811660048301908152602483018790526060604484019081528651606485015286519290941693634000aea0938a938993899390929091608490910190602085019080838360005b838110156105075781810151838201526020016104ef565b50505050905090810190601f1680156105345780820380516001836020036101000a031916815260200191505b50945050505050602060405180830381600087803b15801561055557600080fd5b505af1158015610569573d6000803e3d6000fd5b505050506040513d602081101561057f57600080fd5b50516103ef5760405162461bcd60e51b815260040180806020018281038252602381526020018061093c6023913960400191505060405180910390fd5b6105c4610921565b60208206156105d95760208206602003820191505b506020808301829052604080518085526000815283019091019052815b92915050565b60178167ffffffffffffffff1611610627576106218360e0600585901b168317610738565b5061026c565b60ff8167ffffffffffffffff16116106655761064e836018611fe0600586901b1617610738565b506106218367ffffffffffffffff83166001610750565b61ffff8167ffffffffffffffff16116106a45761068d836019611fe0600586901b1617610738565b506106218367ffffffffffffffff83166002610750565b63ffffffff8167ffffffffffffffff16116106e5576106ce83601a611fe0600586901b1617610738565b506106218367ffffffffffffffff83166004610750565b6106fa83601b611fe0600586901b1617610738565b506107118367ffffffffffffffff83166008610750565b50505050565b61071f610921565b61073183846000015151848551610769565b9392505050565b610740610921565b6107318384600001515184610815565b610758610921565b6103ef848560000151518585610860565b610771610921565b825182111561077f57600080fd5b846020015182850111156107a9576107a9856107a187602001518786016108be565b6002026108d5565b6000808651805187602083010193508088870111156107c85787860182525b505050602084015b602084106107ef5780518252601f1990930192602091820191016107d0565b51815160001960208690036101000a019081169019919091161790525083949350505050565b61081d610921565b83602001518310610839576108398485602001516002026108d5565b835180516020858301018481535080851415610856576001810182525b5093949350505050565b610868610921565b8460200151848301111561088557610885858584016002026108d5565b60006001836101000a0390508551838682010185831982511617815250805184870111156108b35783860181525b509495945050505050565b6000818311156108cf5750816105f6565b50919050565b81516108e183836105bc565b506107118382610717565b6040805160a08101825260008082526020820181905291810182905260608101919091526080810161091c610921565b905290565b60405180604001604052806060815260200160008152509056fe756e61626c6520746f207472616e73666572416e6443616c6c20746f206f7261636c65536f75726365206d75737420626520746865206f7261636c65206f66207468652072657175657374a2646970667358221220d000166cd28d6cd01c77b51a5caf32be3192e8e6cf920f54620ca831c3cec5b364736f6c63430007030033",
    "sourcePath": "/Users/tata/Desktop/digital-wave/blockchain-contract-technical-test/contracts/DigitalWaveOracle.sol",
    "compiler": {
        "name": "solc",
        "version": "0.7.3+commit.9bfce1f6"
    },
    "functionHashes": {
        "facts()": "7e74f360",
        "fulfill(bytes32,uint256)": "4357855e",
        "response()": "7a7f01a7"
    },
    "gasEstimates": {
        "creation": {
            "codeDepositCost": "498400",
            "executionCost": "infinite",
            "totalCost": "infinite"
        },
        "external": {
            "facts()": "infinite",
            "fulfill(bytes32,uint256)": "infinite",
            "response()": "998"
        }
    }
}