{
    "contractName": "DigitalWave",
    "abi": [
        {
            "inputs": [
                {
                    "internalType": "string",
                    "name": "initMessage",
                    "type": "string"
                },
                {
                    "internalType": "string",
                    "name": "initCreator",
                    "type": "string"
                },
                {
                    "internalType": "string",
                    "name": "initFact",
                    "type": "string"
                }
            ],
            "stateMutability": "nonpayable",
            "type": "constructor"
        },
        {
            "inputs": [],
            "name": "creator",
            "outputs": [
                {
                    "internalType": "string",
                    "name": "",
                    "type": "string"
                }
            ],
            "stateMutability": "view",
            "type": "function"
        },
        {
            "inputs": [],
            "name": "fact",
            "outputs": [
                {
                    "internalType": "string",
                    "name": "",
                    "type": "string"
                }
            ],
            "stateMutability": "view",
            "type": "function"
        },
        {
            "inputs": [],
            "name": "message",
            "outputs": [
                {
                    "internalType": "string",
                    "name": "",
                    "type": "string"
                }
            ],
            "stateMutability": "view",
            "type": "function"
        },
        {
            "inputs": [
                {
                    "internalType": "string",
                    "name": "newMessage",
                    "type": "string"
                },
                {
                    "internalType": "string",
                    "name": "newFact",
                    "type": "string"
                }
            ],
            "name": "update",
            "outputs": [],
            "stateMutability": "nonpayable",
            "type": "function"
        }
    ],
    "bytecode": "608060405234801561001057600080fd5b5060405161073238038061073283398101604081905261002f91610120565b600061003b8482610230565b5060016100488382610230565b5060026100558282610230565b505050506102ef565b634e487b7160e01b600052604160045260246000fd5b600082601f83011261008557600080fd5b81516001600160401b038082111561009f5761009f61005e565b604051601f8301601f19908116603f011681019082821181831017156100c7576100c761005e565b816040528381526020925086838588010111156100e357600080fd5b600091505b8382101561010557858201830151818301840152908201906100e8565b838211156101165760008385830101525b9695505050505050565b60008060006060848603121561013557600080fd5b83516001600160401b038082111561014c57600080fd5b61015887838801610074565b9450602086015191508082111561016e57600080fd5b61017a87838801610074565b9350604086015191508082111561019057600080fd5b5061019d86828701610074565b9150509250925092565b600181811c908216806101bb57607f821691505b6020821081036101db57634e487b7160e01b600052602260045260246000fd5b50919050565b601f82111561022b57600081815260208120601f850160051c810160208610156102085750805b601f850160051c820191505b8181101561022757828155600101610214565b5050505b505050565b81516001600160401b038111156102495761024961005e565b61025d8161025784546101a7565b846101e1565b602080601f831160018114610292576000841561027a5750858301515b600019600386901b1c1916600185901b178555610227565b600085815260208120601f198616915b828110156102c1578886015182559484019460019091019084016102a2565b50858210156102df5787850151600019600388901b60f8161c191681555b5050505050600190811b01905550565b610434806102fe6000396000f3fe608060405234801561001057600080fd5b506004361061004c5760003560e01c806302d05d3f1461005157806373e3ce801461006f578063e21f37ce14610077578063f4c84d191461007f575b600080fd5b610059610094565b604051610066919061015a565b60405180910390f35b610059610122565b61005961012f565b61009261008d366004610252565b61013c565b005b600180546100a1906102b6565b80601f01602080910402602001604051908101604052809291908181526020018280546100cd906102b6565b801561011a5780601f106100ef5761010080835404028352916020019161011a565b820191906000526020600020905b8154815290600101906020018083116100fd57829003601f168201915b505050505081565b600280546100a1906102b6565b600080546100a1906102b6565b6000610148838261033e565b506002610155828261033e565b505050565b600060208083528351808285015260005b818110156101875785810183015185820160400152820161016b565b81811115610199576000604083870101525b50601f01601f1916929092016040019392505050565b634e487b7160e01b600052604160045260246000fd5b600082601f8301126101d657600080fd5b813567ffffffffffffffff808211156101f1576101f16101af565b604051601f8301601f19908116603f01168101908282118183101715610219576102196101af565b8160405283815286602085880101111561023257600080fd5b836020870160208301376000602085830101528094505050505092915050565b6000806040838503121561026557600080fd5b823567ffffffffffffffff8082111561027d57600080fd5b610289868387016101c5565b9350602085013591508082111561029f57600080fd5b506102ac858286016101c5565b9150509250929050565b600181811c908216806102ca57607f821691505b6020821081036102ea57634e487b7160e01b600052602260045260246000fd5b50919050565b601f82111561015557600081815260208120601f850160051c810160208610156103175750805b601f850160051c820191505b8181101561033657828155600101610323565b505050505050565b815167ffffffffffffffff811115610358576103586101af565b61036c8161036684546102b6565b846102f0565b602080601f8311600181146103a157600084156103895750858301515b600019600386901b1c1916600185901b178555610336565b600085815260208120601f198616915b828110156103d0578886015182559484019460019091019084016103b1565b50858210156103ee5787850151600019600388901b60f8161c191681555b5050505050600190811b0190555056fea2646970667358221220ca172a91033373f5672e7f27abcd89029f13f8d3534d5b81b42974e5a007a7f264736f6c634300080f0033",
    "sourcePath": "/Users/tata/Desktop/digital wave/blockchain-contract-technical-test/contracts/DigitalWave.sol",
    "compiler": {
        "name": "solc",
        "version": "0.8.15+commit.e14f2714"
    },
    "functionHashes": {
        "creator()": "02d05d3f",
        "fact()": "73e3ce80",
        "message()": "e21f37ce",
        "update(string,string)": "f4c84d19"
    },
    "gasEstimates": {
        "creation": {
            "codeDepositCost": "215200",
            "executionCost": "infinite",
            "totalCost": "infinite"
        },
        "external": {
            "creator()": "infinite",
            "fact()": "infinite",
            "message()": "infinite",
            "update(string,string)": "infinite"
        }
    }
}