{
  "_format": "hh-sol-artifact-1",
  "contractName": "DigitalWave",
  "sourceName": "contracts/DigitalWave.sol",
  "abi": [
    {
      "inputs": [
        {
          "internalType": "string",
          "name": "initMessage",
          "type": "string"
        },
        {
          "internalType": "string",
          "name": "initCreator",
          "type": "string"
        },
        {
          "internalType": "string",
          "name": "initFact",
          "type": "string"
        }
      ],
      "stateMutability": "nonpayable",
      "type": "constructor"
    },
    {
      "inputs": [],
      "name": "creator",
      "outputs": [
        {
          "internalType": "string",
          "name": "",
          "type": "string"
        }
      ],
      "stateMutability": "view",
      "type": "function"
    },
    {
      "inputs": [],
      "name": "fact",
      "outputs": [
        {
          "internalType": "string",
          "name": "",
          "type": "string"
        }
      ],
      "stateMutability": "view",
      "type": "function"
    },
    {
      "inputs": [],
      "name": "message",
      "outputs": [
        {
          "internalType": "string",
          "name": "",
          "type": "string"
        }
      ],
      "stateMutability": "view",
      "type": "function"
    },
    {
      "inputs": [
        {
          "internalType": "string",
          "name": "newMessage",
          "type": "string"
        },
        {
          "internalType": "string",
          "name": "newFact",
          "type": "string"
        }
      ],
      "name": "update",
      "outputs": [],
      "stateMutability": "nonpayable",
      "type": "function"
    }
  ],
  "bytecode": "0x60806040523480156200001157600080fd5b5060405162000e3d38038062000e3d833981810160405281019062000037919062000213565b826000908162000048919062000517565b5081600190816200005a919062000517565b5080600290816200006c919062000517565b50505050620005fe565b6000604051905090565b600080fd5b600080fd5b600080fd5b600080fd5b6000601f19601f8301169050919050565b7f4e487b7100000000000000000000000000000000000000000000000000000000600052604160045260246000fd5b620000df8262000094565b810181811067ffffffffffffffff82111715620001015762000100620000a5565b5b80604052505050565b60006200011662000076565b9050620001248282620000d4565b919050565b600067ffffffffffffffff821115620001475762000146620000a5565b5b620001528262000094565b9050602081019050919050565b60005b838110156200017f57808201518184015260208101905062000162565b838111156200018f576000848401525b50505050565b6000620001ac620001a68462000129565b6200010a565b905082815260208101848484011115620001cb57620001ca6200008f565b5b620001d88482856200015f565b509392505050565b600082601f830112620001f857620001f76200008a565b5b81516200020a84826020860162000195565b91505092915050565b6000806000606084860312156200022f576200022e62000080565b5b600084015167ffffffffffffffff81111562000250576200024f62000085565b5b6200025e86828701620001e0565b935050602084015167ffffffffffffffff81111562000282576200028162000085565b5b6200029086828701620001e0565b925050604084015167ffffffffffffffff811115620002b457620002b362000085565b5b620002c286828701620001e0565b9150509250925092565b600081519050919050565b7f4e487b7100000000000000000000000000000000000000000000000000000000600052602260045260246000fd5b600060028204905060018216806200031f57607f821691505b602082108103620003355762000334620002d7565b5b50919050565b60008190508160005260206000209050919050565b60006020601f8301049050919050565b600082821b905092915050565b6000600883026200039f7fffffffffffffffffffffffffffffffffffffffffffffffffffffffffffffffff8262000360565b620003ab868362000360565b95508019841693508086168417925050509392505050565b6000819050919050565b6000819050919050565b6000620003f8620003f2620003ec84620003c3565b620003cd565b620003c3565b9050919050565b6000819050919050565b6200041483620003d7565b6200042c6200042382620003ff565b8484546200036d565b825550505050565b600090565b6200044362000434565b6200045081848462000409565b505050565b5b8181101562000478576200046c60008262000439565b60018101905062000456565b5050565b601f821115620004c75762000491816200033b565b6200049c8462000350565b81016020851015620004ac578190505b620004c4620004bb8562000350565b83018262000455565b50505b505050565b600082821c905092915050565b6000620004ec60001984600802620004cc565b1980831691505092915050565b6000620005078383620004d9565b9150826002028217905092915050565b6200052282620002cc565b67ffffffffffffffff8111156200053e576200053d620000a5565b5b6200054a825462000306565b620005578282856200047c565b600060209050601f8311600181146200058f57600084156200057a578287015190505b620005868582620004f9565b865550620005f6565b601f1984166200059f866200033b565b60005b82811015620005c957848901518255600182019150602085019450602081019050620005a2565b86831015620005e95784890151620005e5601f891682620004d9565b8355505b6001600288020188555050505b505050505050565b61082f806200060e6000396000f3fe608060405234801561001057600080fd5b506004361061004c5760003560e01c806302d05d3f1461005157806373e3ce801461006f578063e21f37ce1461008d578063f4c84d19146100ab575b600080fd5b6100596100c7565b604051610066919061032e565b60405180910390f35b610077610155565b604051610084919061032e565b60405180910390f35b6100956101e3565b6040516100a2919061032e565b60405180910390f35b6100c560048036038101906100c09190610499565b610271565b005b600180546100d490610540565b80601f016020809104026020016040519081016040528092919081815260200182805461010090610540565b801561014d5780601f106101225761010080835404028352916020019161014d565b820191906000526020600020905b81548152906001019060200180831161013057829003601f168201915b505050505081565b6002805461016290610540565b80601f016020809104026020016040519081016040528092919081815260200182805461018e90610540565b80156101db5780601f106101b0576101008083540402835291602001916101db565b820191906000526020600020905b8154815290600101906020018083116101be57829003601f168201915b505050505081565b600080546101f090610540565b80601f016020809104026020016040519081016040528092919081815260200182805461021c90610540565b80156102695780601f1061023e57610100808354040283529160200191610269565b820191906000526020600020905b81548152906001019060200180831161024c57829003601f168201915b505050505081565b81600090816102809190610727565b5080600290816102909190610727565b505050565b600081519050919050565b600082825260208201905092915050565b60005b838110156102cf5780820151818401526020810190506102b4565b838111156102de576000848401525b50505050565b6000601f19601f8301169050919050565b600061030082610295565b61030a81856102a0565b935061031a8185602086016102b1565b610323816102e4565b840191505092915050565b6000602082019050818103600083015261034881846102f5565b905092915050565b6000604051905090565b600080fd5b600080fd5b600080fd5b600080fd5b7f4e487b7100000000000000000000000000000000000000000000000000000000600052604160045260246000fd5b6103a6826102e4565b810181811067ffffffffffffffff821117156103c5576103c461036e565b5b80604052505050565b60006103d8610350565b90506103e4828261039d565b919050565b600067ffffffffffffffff8211156104045761040361036e565b5b61040d826102e4565b9050602081019050919050565b82818337600083830152505050565b600061043c610437846103e9565b6103ce565b90508281526020810184848401111561045857610457610369565b5b61046384828561041a565b509392505050565b600082601f8301126104805761047f610364565b5b8135610490848260208601610429565b91505092915050565b600080604083850312156104b0576104af61035a565b5b600083013567ffffffffffffffff8111156104ce576104cd61035f565b5b6104da8582860161046b565b925050602083013567ffffffffffffffff8111156104fb576104fa61035f565b5b6105078582860161046b565b9150509250929050565b7f4e487b7100000000000000000000000000000000000000000000000000000000600052602260045260246000fd5b6000600282049050600182168061055857607f821691505b60208210810361056b5761056a610511565b5b50919050565b60008190508160005260206000209050919050565b60006020601f8301049050919050565b600082821b905092915050565b6000600883026105d37fffffffffffffffffffffffffffffffffffffffffffffffffffffffffffffffff82610596565b6105dd8683610596565b95508019841693508086168417925050509392505050565b6000819050919050565b6000819050919050565b600061062461061f61061a846105f5565b6105ff565b6105f5565b9050919050565b6000819050919050565b61063e83610609565b61065261064a8261062b565b8484546105a3565b825550505050565b600090565b61066761065a565b610672818484610635565b505050565b5b818110156106965761068b60008261065f565b600181019050610678565b5050565b601f8211156106db576106ac81610571565b6106b584610586565b810160208510156106c4578190505b6106d86106d085610586565b830182610677565b50505b505050565b600082821c905092915050565b60006106fe600019846008026106e0565b1980831691505092915050565b600061071783836106ed565b9150826002028217905092915050565b61073082610295565b67ffffffffffffffff8111156107495761074861036e565b5b6107538254610540565b61075e82828561069a565b600060209050601f831160018114610791576000841561077f578287015190505b610789858261070b565b8655506107f1565b601f19841661079f86610571565b60005b828110156107c7578489015182556001820191506020850194506020810190506107a2565b868310156107e457848901516107e0601f8916826106ed565b8355505b6001600288020188555050505b50505050505056fea2646970667358221220eb1cbef0603f6ea57b7c7302787d0c29767005e20b033eeb4f826bd7b25c3acb64736f6c634300080f0033",
  "linkReferences": {},
  "deployedLinkReferences": {}
}