{
  "_format": "hh-sol-artifact-1",
  "contractName": "DigitalWave",
  "sourceName": "contracts/DigitalWave.sol",
  "abi": [
    {
      "inputs": [
        {
          "internalType": "string",
          "name": "initMessage",
          "type": "string"
        },
        {
          "internalType": "string",
          "name": "initCreator",
          "type": "string"
        }
      ],
      "stateMutability": "nonpayable",
      "type": "constructor"
    },
    {
      "inputs": [],
      "name": "creator",
      "outputs": [
        {
          "internalType": "string",
          "name": "",
          "type": "string"
        }
      ],
      "stateMutability": "view",
      "type": "function"
    },
    {
      "inputs": [],
      "name": "message",
      "outputs": [
        {
          "internalType": "string",
          "name": "",
          "type": "string"
        }
      ],
      "stateMutability": "view",
      "type": "function"
    },
    {
      "inputs": [
        {
          "internalType": "string",
          "name": "newMessage",
          "type": "string"
        }
      ],
      "name": "update",
      "outputs": [],
      "stateMutability": "nonpayable",
      "type": "function"
    }
  ],
  "bytecode": "0x60806040523480156200001157600080fd5b5060405162000cff38038062000cff833981810160405281019062000037919062000200565b8160009081620000489190620004d0565b5080600190816200005a9190620004d0565b505050620005b7565b6000604051905090565b600080fd5b600080fd5b600080fd5b600080fd5b6000601f19601f8301169050919050565b7f4e487b7100000000000000000000000000000000000000000000000000000000600052604160045260246000fd5b620000cc8262000081565b810181811067ffffffffffffffff82111715620000ee57620000ed62000092565b5b80604052505050565b60006200010362000063565b9050620001118282620000c1565b919050565b600067ffffffffffffffff82111562000134576200013362000092565b5b6200013f8262000081565b9050602081019050919050565b60005b838110156200016c5780820151818401526020810190506200014f565b838111156200017c576000848401525b50505050565b600062000199620001938462000116565b620000f7565b905082815260208101848484011115620001b857620001b76200007c565b5b620001c58482856200014c565b509392505050565b600082601f830112620001e557620001e462000077565b5b8151620001f784826020860162000182565b91505092915050565b600080604083850312156200021a57620002196200006d565b5b600083015167ffffffffffffffff8111156200023b576200023a62000072565b5b6200024985828601620001cd565b925050602083015167ffffffffffffffff8111156200026d576200026c62000072565b5b6200027b85828601620001cd565b9150509250929050565b600081519050919050565b7f4e487b7100000000000000000000000000000000000000000000000000000000600052602260045260246000fd5b60006002820490506001821680620002d857607f821691505b602082108103620002ee57620002ed62000290565b5b50919050565b60008190508160005260206000209050919050565b60006020601f8301049050919050565b600082821b905092915050565b600060088302620003587fffffffffffffffffffffffffffffffffffffffffffffffffffffffffffffffff8262000319565b62000364868362000319565b95508019841693508086168417925050509392505050565b6000819050919050565b6000819050919050565b6000620003b1620003ab620003a5846200037c565b62000386565b6200037c565b9050919050565b6000819050919050565b620003cd8362000390565b620003e5620003dc82620003b8565b84845462000326565b825550505050565b600090565b620003fc620003ed565b62000409818484620003c2565b505050565b5b81811015620004315762000425600082620003f2565b6001810190506200040f565b5050565b601f82111562000480576200044a81620002f4565b620004558462000309565b8101602085101562000465578190505b6200047d620004748562000309565b8301826200040e565b50505b505050565b600082821c905092915050565b6000620004a56000198460080262000485565b1980831691505092915050565b6000620004c0838362000492565b9150826002028217905092915050565b620004db8262000285565b67ffffffffffffffff811115620004f757620004f662000092565b5b620005038254620002bf565b6200051082828562000435565b600060209050601f83116001811462000548576000841562000533578287015190505b6200053f8582620004b2565b865550620005af565b601f1984166200055886620002f4565b60005b8281101562000582578489015182556001820191506020850194506020810190506200055b565b86831015620005a257848901516200059e601f89168262000492565b8355505b6001600288020188555050505b505050505050565b61073880620005c76000396000f3fe608060405234801561001057600080fd5b50600436106100415760003560e01c806302d05d3f146100465780633d7403a314610064578063e21f37ce14610080575b600080fd5b61004e61009e565b60405161005b9190610266565b60405180910390f35b61007e600480360381019061007991906103d1565b61012c565b005b61008861013f565b6040516100959190610266565b60405180910390f35b600180546100ab90610449565b80601f01602080910402602001604051908101604052809291908181526020018280546100d790610449565b80156101245780601f106100f957610100808354040283529160200191610124565b820191906000526020600020905b81548152906001019060200180831161010757829003601f168201915b505050505081565b806000908161013b9190610630565b5050565b6000805461014c90610449565b80601f016020809104026020016040519081016040528092919081815260200182805461017890610449565b80156101c55780601f1061019a576101008083540402835291602001916101c5565b820191906000526020600020905b8154815290600101906020018083116101a857829003601f168201915b505050505081565b600081519050919050565b600082825260208201905092915050565b60005b838110156102075780820151818401526020810190506101ec565b83811115610216576000848401525b50505050565b6000601f19601f8301169050919050565b6000610238826101cd565b61024281856101d8565b93506102528185602086016101e9565b61025b8161021c565b840191505092915050565b60006020820190508181036000830152610280818461022d565b905092915050565b6000604051905090565b600080fd5b600080fd5b600080fd5b600080fd5b7f4e487b7100000000000000000000000000000000000000000000000000000000600052604160045260246000fd5b6102de8261021c565b810181811067ffffffffffffffff821117156102fd576102fc6102a6565b5b80604052505050565b6000610310610288565b905061031c82826102d5565b919050565b600067ffffffffffffffff82111561033c5761033b6102a6565b5b6103458261021c565b9050602081019050919050565b82818337600083830152505050565b600061037461036f84610321565b610306565b9050828152602081018484840111156103905761038f6102a1565b5b61039b848285610352565b509392505050565b600082601f8301126103b8576103b761029c565b5b81356103c8848260208601610361565b91505092915050565b6000602082840312156103e7576103e6610292565b5b600082013567ffffffffffffffff81111561040557610404610297565b5b610411848285016103a3565b91505092915050565b7f4e487b7100000000000000000000000000000000000000000000000000000000600052602260045260246000fd5b6000600282049050600182168061046157607f821691505b6020821081036104745761047361041a565b5b50919050565b60008190508160005260206000209050919050565b60006020601f8301049050919050565b600082821b905092915050565b6000600883026104dc7fffffffffffffffffffffffffffffffffffffffffffffffffffffffffffffffff8261049f565b6104e6868361049f565b95508019841693508086168417925050509392505050565b6000819050919050565b6000819050919050565b600061052d610528610523846104fe565b610508565b6104fe565b9050919050565b6000819050919050565b61054783610512565b61055b61055382610534565b8484546104ac565b825550505050565b600090565b610570610563565b61057b81848461053e565b505050565b5b8181101561059f57610594600082610568565b600181019050610581565b5050565b601f8211156105e4576105b58161047a565b6105be8461048f565b810160208510156105cd578190505b6105e16105d98561048f565b830182610580565b50505b505050565b600082821c905092915050565b6000610607600019846008026105e9565b1980831691505092915050565b600061062083836105f6565b9150826002028217905092915050565b610639826101cd565b67ffffffffffffffff811115610652576106516102a6565b5b61065c8254610449565b6106678282856105a3565b600060209050601f83116001811461069a5760008415610688578287015190505b6106928582610614565b8655506106fa565b601f1984166106a88661047a565b60005b828110156106d0578489015182556001820191506020850194506020810190506106ab565b868310156106ed57848901516106e9601f8916826105f6565b8355505b6001600288020188555050505b50505050505056fea26469706673582212202828a69fef30944482467c290d0d509c061a76acff11a2f989b83fbbe6df1baa64736f6c634300080f0033",
  "linkReferences": {},
  "deployedLinkReferences": {}
}